:100000000C9474000C949C000C949C000C949C0028
:100010000C949C000C949C000C949C000C949C00F0
:100020000C949C000C949C000C949C000C949C00E0
:100030000C949C000C949C000C949C000C949C00D0
:100040000C9407200C949C000C94AB210C948521FB
:100050000C949C000C949C000C949C000C949C00B0
:100060000C949C000C949C0016150F152915201556
:100070001C15E3140715A9144D5154542041726402
:1000800075696E6F2044656D6F00000000002300ED
:100090002600290000000000240027002A0000009C
:1000A0000000250028002B000404040404040404B8
:1000B0000202020202020303030303030102040813
:1000C00010204080010204081020010204081020C2
:1000D0000000000800020100000304070000000007
:1000E00000000000E321DD2111241FBECFEFD8E086
:1000F000DEBFCDBF13E0A0E0B1E0ECE1F4E502C06B
:1001000005900D92A838B107D9F726E0A8E8B3E02A
:1001100001C01D92A531B207E1F710E0C3E7D0E0BE
:1001200004C02197FE010E94F124C237D107C9F70C
:100130000E94C8220C94012A0C940000FC01268124
:100140003781620F731F848195818617970738F076
:100150008281938177836683820F931F089580E065
:1001600090E00895CF92DF92EF92FF920F931F934A
:10017000CF93DF93CDB7DEB763970FB6F894DEBFAA
:100180000FBECDBF6C017B018A0167E372E08BE299
:1001900094E00E94CD20B6018BE294E00E94CD2035
:1001A00069E472E08BE294E00E94CD20F701E00F59
:1001B000F11F1082B701CE0108960E9481204C8564
:1001C0005D85688579858BE294E00E94321F6CE43E
:1001D00072E08BE294E00E94CD208885998500979B
:1001E00011F48BE693E028EC34E03A8329839C8376
:1001F0008B833E832D838AE08F83CE0101960E94FC
:100200009517FC0120813181232B29F48FE492E0A2
:100210000E94F71B77C06AE672E00E94C0168C014C
:100220000097F1F0FC01E480F580F1E0EF16F104B5
:1002300061F4FC01668177816115710531F080E719
:1002400092E00E94D727892B59F0F1E0EF1AF108CC
:1002500082E0E816F10420F4F8010681178102C05B
:1002600000E010E065E772E08BE294E00E94CD20B0
:10027000B801CE0101960E9481206DE872E0CE01A6
:100280000E960E948120BE01625F7F4FCE010196D3
:100290000E9451208C018E859F850E944826012B4B
:1002A00049F485E892E00E94F71B81E080931705EE
:1002B00061E01BC068E972E0CE010E960E948120C9
:1002C000BE01625F7F4FCE0101960E9451208C01DA
:1002D0008E859F850E944826012B61F480E992E07B
:1002E0000E94F71B1092170560E0809114050E9490
:1002F000AB1904C08CE992E00E94F71B89819A81B6
:100300000E944826888599850E94482663960FB6E4
:10031000F894DEBF0FBECDBFDF91CF911F910F913B
:10032000FF90EF90DF90CF900895DB01109749F098
:10033000ED91FC9111970190F081E02DBC01CD0170
:10034000099480E090E00895CF93DF93EC01BC0125
:1003500084E090E00E949501FC01009729F0D18390
:10036000C0831382128211C080910D0481110BC0D1
:1003700010920A041092090410920C0410920B04BB
:1003800081E080930D0489E094E0DF91CF9108959E
:100390002F923F924F925F926F927F928F929F9295
:1003A000AF92BF92CF92DF92EF92FF920F931F9383
:1003B000CF93DF93CDB7DEB7CB50D1400FB6F894D3
:1003C000DEBF0FBECDBF62E085E00E94DB1962E0B8
:1003D00086E00E94DB1960E087E00E94DB1960E0A4
:1003E00084E00E94DB1982E195E00E94DD138CE03D
:1003F00095E00E94DD13E0913B04F0913C0482E023
:100400008083E0913704F09138041082E091390440
:10041000F0913A048FEC808310924304E0913F0402
:10042000F091400486E08083E0913D04F0913E0429
:10043000808180618083E0913D04F0913E04808161
:1004400088608083E0913D04F0913E048081806863
:100450008083E0913D04F0913E0480818F7D808314
:1004600008E710E0F801649161112BC06CE472E0C0
:100470008BE294E00E94CD206CE472E08BE294E089
:100480000E94CD200E94E11A8B019C016093EF0332
:100490001093F0032093F1033093F2031092F303CF
:1004A0001092F4031092F5031092F60358EE452EC5
:1004B00053E0552E612C712C69ED262E61E0362E0D
:1004C000F8C0E0912B04F0912C040190F081E02D14
:1004D0008BE294E009950F5F1F4F892B09F0C2CF83
:1004E000C5CF89E893E090932A04809329046CE2B5
:1004F00071E080E090E00E94171A1FB7F894809195
:100500008803882309F4FEC0809188038F5F80935D
:1005100088031FBF229A80E590E00E940B1960E8D3
:1005200080E090E00E94700F65E58BE190E00E9412
:10053000700F65E58AE190E00E94700F0E940A1931
:1005400080E090E49093F8038093F70380E090E6D6
:10055000909300048093FF0380E098E49093FA0363
:100560008093F90380E098E690930204809301045D
:1005700080E090E59093FC038093FB0380E090E79C
:10058000909304048093030480E098E59093FE0325
:100590008093FD0380E098E7909306048093050420
:1005A00080E590E00E940B1946E050E060E071E0C9
:1005B00089E090E00E94DC0E3A8229821B821C8234
:1005C0001D821E8244E050E0BE016D5F7F4F8FE0D0
:1005D00090E00E94DC0E0E940A19009129041091FB
:1005E0002A04D80192961D921D921D921C929597F5
:1005F000F80116A217A210A611A69A961D921D9296
:100600001D921C929D9780E69AEEA0E0B0E086AB2A
:1006100097ABA0AFB1AF80EA9FE0A0E0B0E082AFBF
:1006200093AFA4AFB5AFD801189686E0FD01282F8F
:1006300011922A95E9F79801225F3F4F94E1F90161
:1006400011929A95E9F7E0E0F1E001900D928A9518
:10065000E1F74801F2E48F0E911CD4011C920E9434
:1006600035282FEC37E040E050E00E946729DC019C
:10067000CB010196A11DB11DF80184839583A6834A
:10068000B78380839183A283B3835801F3E4AF0ED1
:10069000B11CC5010E94791D64E470E0C5010E948F
:1006A0008E1D811157C068EE73E080E090E00E94DB
:1006B000171A8091E703811114CF1092CF03109283
:1006C000CE034092D0035092D1036092D203709235
:1006D000D3038DE092E09093CD038093CC033092CE
:1006E000DB032092DA031092DC031092DD031092F8
:1006F000DE031092DF0384E08093E40381E08093C3
:10070000E703EFCEE2EBF0E08491E6ECF0E09491C9
:10071000E82FF0E0EE0FFF1FEC56FF4FA591B491CC
:10072000EC919E2321F461E08AE00E94AB1961E024
:100730008AE00E94DB198CB580618CBD8CB5806429
:100740008CBD61E08DE00E94DB1961E08BE00E94CE
:10075000DB19DACE0E94E11A6B017C01C65FDE4F25
:1007600019821882CA50D140C75FDE4F1882C95023
:10077000D140D4018C91833009F426C181111FC06E
:10078000F80184819581A681B7810196A11DB11DD3
:1007900084839583A683B7830E94E11A6C197D092F
:1007A0008E099F09A30192010E94D029A90161E04D
:1007B000C8010E94CE0D81E0D4018C93DBC084304F
:1007C000F9F4F80184819581A681B7810196A11D74
:1007D000B11D84839583A683B7830E94E11A6C19A7
:1007E0007D098E099F09A30192010E94D029A901C8
:1007F00063E0C8010E94CE0DE2E0D401EC93BAC0E0
:100800008130A9F5D801DA964D915D916D917C9179
:10081000DD979E012F5F3F4FC8010E94080CC75F04
:10082000DE4F8883C950D140823009F0A3C089814E
:100830009A81AB81BC81F80184839583A683B783B9
:100840000E94E11A6C197D098E099F09A30192018A
:100850000E94D029A90163E0C8010E94CE0DC75FA4
:10086000DE4FE881C950D140D401EC9391C0823071
:1008700009F080C0D801DA964D915D916D917C911F
:10088000DD979E012F5F3F4FC8010E94080CC75F94
:10089000DE4F8883C950D140853009F061C023E024
:1008A000F4012083F80182A193A1A4A1B5A1892B11
:1008B0008A2B8B2B41F484E893E0A0E0B0E082A384
:1008C00093A3A4A3B5A3F80186A197A1A0A5B1A560
:1008D000892B8A2B8B2B61F482A193A1A4A1B5A1B2
:1008E000B695A7959795879586A397A3A0A7B1A737
:1008F000F80182A593A5A4A5B5A5892B8A2B8B2BDE
:10090000A9F482A193A1A4A1B5A1AC01BD0123E0EA
:1009100076956795579547952A95D1F7841B950B42
:10092000A60BB70B82A793A7A4A7B5A7F80186A12A
:1009300097A1A0A5B1A586A797A7A0ABB1AB82A5AB
:1009400093A5A4A5B5A582AB93ABA4ABB5AB81E051
:1009500090E0C65FDE4F99838883CA50D14018C0AB
:10096000C75FDE4F9881C950D140963019F4D40149
:100970001C920EC0C75FDE4FB881C950D140BF3F47
:1009800039F4F4011082C75FDE4F1882C950D1409C
:10099000C65FDE4F88819981CA50D140019709F422
:1009A000E8CE0E94E11ADC01CB018C199D09AE0949
:1009B000BF09F80126A937A940AD51AD281739075D
:1009C0004A075B0708F0D5CEC5010E94791DF801E2
:1009D00084819581A681B7810196A11DB11D848373
:1009E0009583A683B7830E94E11AF801FE9660837F
:1009F000718382839383C65FDE4F88819981CA5059
:100A0000D140019709F056C080E590E00E940B1993
:100A10006091290470912A04625F7F4FCE01019694
:100A20000E94752144E050E0BE016D5F7F4F8FE072
:100A300090E00E94DC0E6091290470912A046A5EA5
:100A40007F4FCE0101960E94752144E050E0BE0127
:100A50006D5F7F4F81E090E00E94DC0E6091290481
:100A600070912A046E5E7F4FCE0101960E9475211F
:100A700044E050E0BE016D5F7F4F85E090E00E9452
:100A8000DC0E0E940A196091290470912A04625EAA
:100A90007F4FCE0101960E9475218B819C81AD8193
:100AA000BE818093250490932604A0932704B093DD
:100AB000280409C0C65FDE4FA881B981CA50D14061
:100AC000AB2B09F4F0CD88E195E090932605809357
:100AD00025058CEA92E09093BB058093BA058BE5DF
:100AE00097E09093BD058093BC0582EB90E09093D6
:100AF000B3058093B20568EE73E080E090E00E9459
:100B0000171A8FEB92E00E94F71B85E490E08C0FA0
:100B10009D1F089629969FAF8EAF29978CE390E092
:100B20002B969FAF8EAF2B972D961FAE1EAE2D9797
:100B300083ED91E027969FAF8EAF2797CE018B5B19
:100B40009F4F0E94A4016C0144ED52E06AE672E0FE
:100B50000E94241844ED52E06CED72E0C6010E9440
:100B6000241844ED52E062EE72E0C6010E9424189F
:100B70008E0107571F4F7E01B5ECEB0EF11CC7012C
:100B8000CB96F80191838083F382E282D7011C9295
:100B90001A8309831C821B82BE016F5F7F4FC601CF
:100BA0000E944F14C7010E94F71B0E949C1C8111D8
:100BB000D7C06091BA057091BB05809125059091D1
:100BC00026054091BC055091BD05DC01ED91FC91DD
:100BD0006115710521F00088F189E02D16C00684A9
:100BE000F785E02D29ED31E03A8329838090B60521
:100BF0009090B705A090B805B090B9058B829C8203
:100C0000AD82BE82BE016F5F7F4F09958130910535
:100C100009F09FC09093A8058093A70587E0E2E1C3
:100C2000F1E0DE01119601900D928A95E1F7FE0147
:100C30003196ACE2B5E0CE01089621912D93E817EC
:100C4000F907D9F786E280933305109234058FE0D7
:100C5000809335054FE050E067E275E088EE92E062
:100C60000E940A1CAC0167E275E08CEE92E00E94E3
:100C70000A1CAC0167E275E0C7010E940A1CAC01C6
:100C80004550510967E275E080E10E942B1C0E94EB
:100C9000E11A6093A9057093AA058093AB05909320
:100CA000AC056093AD057093AE058093AF0590934E
:100CB000B0058091250590912605DC01ED91FC9110
:100CC0000084F185E02D0995892BC1F40E94E11A79
:100CD000C090AD05D090AE05E090AF05F090B005A6
:100CE000DC01CB018C199D09AE09BF0988399A43F3
:100CF000A105B105F0F28CEF9FEF1BC0C8010E9467
:100D000021080497D1F480912A05811111C00E9415
:100D1000E11A6093AD057093AE058093AF05909393
:100D2000B0051092B1051092C1051092C00518C00F
:100D300090E09093C1058093C00580912505909126
:100D40002605DC01ED91FC910488F589E02D0995DB
:100D50008AC08EEF9FEF9093C1058093C00583C03A
:100D60000E949C1C882341F18091A7059091A805C1
:100D7000019611F481E090E09093A8058093A70577
:100D80008091A7059091A80590932C0580932D053F
:100D900047E050E067E275E08FE093E00E940A1CB4
:100DA000FC01E65EFA4F1586AC014450510967E23A
:100DB00075E082E80E942B1C84E393E00E94F71BFD
:100DC000CE0109969C838B838CE390E09E838D8378
:100DD00018861F8283ED91E09A838983CE01019664
:100DE0000E94A4017C014FE353E06AE672E00E9496
:100DF00024184FE353E06CED72E0C7010E94241801
:100E00004FE353E062EE72E0C7010E942418FE0136
:100E1000EB5FFE4FC801CB969183808313830283DF
:100E2000D8011C92CF5FDE4FF983E883C150D140D7
:100E3000CD5FDE4F19821882C350D140BE016F5F73
:100E40007E4FC7010E944F14C8010E94F71BF80192
:100E500001900020E9F73197BF01601B710B41E061
:100E6000C8010E94DB0786E493E00E94F71B0E9402
:100E7000E11A60930C0670930D0680930E06909312
:100E80000F06C55FDE4F0FB6F894DEBF0FBECDBFB5
:100E9000DF91CF911F910F91FF90EF90DF90CF9056
:100EA000BF90AF909F908F907F906F905F904F908A
:100EB0003F902F90089580E3FB0180833296842F2A
:100EC00082958F7090E1899F401911244A3014F463
:100ED000405D01C0495C4293482F8111F0CF0895D5
:100EE000CF92DF92EF92FF92CF93DF93EC010E94BB
:100EF000E11A6B017C018091250590912605DC01AA
:100F0000ED91FC910084F185E02D0995892B79F410
:100F10000E94E11AAB01BC014C195D096E097F0901
:100F200048395A436105710530F380E00DC0809166
:100F3000250590912605DC01ED91FC910284F38555
:100F4000E02D0995888381E0DF91CF91FF90EF90AC
:100F5000DF90CF900895CF92DF92EF92FF920F93A0
:100F60001F93CF93DF93EC017A018B016C01C40EC8
:100F7000D51ECC15DD05A9F00E94FB0F8FE00E9465
:100F800015108D2F0E9415108C2F0E941510219680
:100F900080E00E941510F80181938F010E94F90FE3
:100FA000E8CFC701DF91CF911F910F91FF90EF9094
:100FB000DF90CF900895FF920F931F93CF93DF930D
:100FC000D82FC92F8B01F42E0E949C1C882391F1ED
:100FD000C80189968138910568F545E050E067E2DF
:100FE00075E08CEE92E00E940A1CFC01AD2FBC2F34
:100FF00020E030E02017310751F08D91E901CE0F4C
:10100000DF1FC85EDA4F8F872F5F3F4FF3CF25502A
:101010003109FF2011F081E301C080E3A9014E0FE7
:101020005F1F67E275E0DF91CF911F910F91FF90F5
:101030000C942B1C80E0DF91CF911F910F91FF90BA
:1010400008955F926F927F928F929F92AF92BF921C
:10105000CF92DF92EF92FF920F931F93CF93DF9384
:101060001F92CDB7DEB74C0187E295E00E94700772
:10107000811126C022C00F5F1F4F8981F801E85EF1
:10108000FA4F8687282F2F7730E02C9DA0012D9DC9
:10109000500D3C9D500D1124A40EB51E37E0CC0C14
:1010A000DD1CEE1CFF1C3A95D1F787FF15C0CE0161
:1010B00001960E9470078111DECF80E090E088C029
:1010C00070902705198201E010E0A12CB12CC12CF1
:1010D000D12C7601C394EBCF872D807F5524539478
:1010E000803309F0512C8FEF800FD4018C93552061
:1010F00021F1C801895D9A4F0E9470078823E9F2A7
:10110000C801885D9A4F0E9470078823B1F20E5F74
:101110001F4FD401EC91F0E0E85EFA4FE088F12C2B
:10112000FE2CEE248189E80EF11C8091270581FFB9
:1011300008C0B2E0EB0EF11C04C080E0E12CF12C01
:1011400001C082E0C82ED12CC01AD10A9EEF692EB0
:1011500077247A94C601800F911F8A159B0568F544
:10116000CE0101960E947007882309F4A6CF8091D2
:10117000BE059091BF050097A9F0552099F0F401A4
:101180002081A301421B51099A01200F311FE21651
:10119000F30640F4DC01ED91FC910190F081E02D2B
:1011A000698109950038110528F48981F801E85E04
:1011B000FA4F87870F5F1F4FCDCF8091BE0590916B
:1011C000BF05892B21F40138110508F076CFC8013D
:1011D0000F90DF91CF911F910F91FF90EF90DF90D3
:1011E000CF90BF90AF909F908F907F906F905F90C7
:1011F0000895CF93C82F462F61E070E00E94051E2E
:1012000061E070E08C2F0E940F1E8111F9CFCF9109
:1012100008958F929F92AF92BF92CF92DF92EF92FA
:10122000FF920F931F93CF93DF93B82E4B018A0148
:10123000A22E68E270E00E940F1EC82FD0E069E283
:1012400070E08B2D0E940F1EDC2FCC27C82B9E0137
:101250003770CB2CD12CC601880F991FAC0141509F
:101260005C4F6A01FA0180819181820F931FA8016E
:10127000420F531F4130584098F060E078E07B0106
:10128000E21AF30AA701B4010E94AB07A8014E19A4
:101290005F09B4016E0D7F1DF6018081918102C04E
:1012A000A801B4010E94AB07A1100EC0C00FD11F4E
:1012B0004D2F68E270E08B2D0E94051E4C2F69E2D5
:1012C00070E08B2D0E94051EDF91CF911F910F9131
:1012D000FF90EF90DF90CF90BF90AF909F908F9056
:1012E0000895FF920F931F93CF93DF93F82EC0E0E2
:1012F000D0E08F2D0E94FD0F8C01892B21F08F2DC6
:101300000E94FD0FEC01C017D10799F7CE01DF91C4
:10131000CF911F910F91FF9008952F923F924F927E
:101320005F926F927F928F929F92AF92BF92CF9275
:10133000DF92EF92FF920F931F93CF93DF93CDB77E
:10134000DEB765970FB6F894DEBF0FBECDBF7C0148
:101350006B013A01FB0120E080E090E06AE031910E
:10136000332309F140ED430F4A3080F4689FA00118
:10137000699F500D1124CA01C097830F911D37FD3D
:101380009A958F3F910559F350F313C03E3289F47B
:10139000233079F0D301A20FB11D12968C932F5FE9
:1013A00080E090E0DCCF233021F4F301858381E0FD
:1013B00021C0F701428153816481758180911F04AE
:1013C00090912004A0912104B0912204481759075C
:1013D0006A077B0709F49EC10E94E11A8701085F32
:1013E0001F4F6F7077277C5FC8010E948E1D813070
:1013F00019F080E090E0F3C189ED91E09A83898350
:10140000F70182819381A481B5818B839C83AD8315
:10141000BE8345E350E0BE016F5F7F4FC8010E946D
:101420007E1E892B19F4C12CD12C6FC10E94E11AA8
:10143000F701778366837627672776277A83698320
:1014400042E050E0BE016F5F7F4FC8010E94C10FB4
:1014500081E090E09E878D8742E050E0BE01635FAF
:101460007F4FC8010E94C10F80E091E09E878D8769
:1014700042E050E0BE01635F7F4FC8010E94C10F90
:101480001E861D8642E050E0BE01635F7F4FC801AB
:101490000E94C10F42E050E0BE01635F7F4FC80170
:1014A0000E94C10F42E050E0BE01635F7F4FC80160
:1014B0000E94C10F5601F5018081882311F1F601C8
:1014C0005F018191811115C045018C189D08181488
:1014D000190494F48F8641E050E0BE01615F7F4FB4
:1014E000C8010E94C10FA401B601C8010E94C10F2A
:1014F00003C08E3229F7E8CF6501FFEFCF1ADF0A6C
:10150000DACF1F8641E050E0BE01615F7F4FC80126
:101510000E94C10FC12CDD24D394DE86CD8642E02B
:1015200050E0BE01635F7F4FC8010E94C10FDE869D
:10153000CD8642E050E0BE01635F7F4FC8010E944C
:10154000C10FC8010E94351E892B09F46CCF63E0DE
:10155000A62EB12CF2E06F0E711C0E94E11A1B0145
:101560002C01C8010E94111118161906A4F00E943E
:10157000E11ADC01CB0182199309A409B509893864
:101580009341A105B105D0F462E370E080E090E002
:101590000E94171AE6CFF701428153816481758159
:1015A000808D918DA28DB38D481759076A077B07EF
:1015B00041F4848D958DC59721F406C02FEF3FEF40
:1015C0009AC02EEF3FEF97C0F70181A192A10C972F
:1015D0000CF4A6C04CE050E0BE016F5F7F4FC80125
:1015E0000E94C9108B8190E0982F88272C81822B34
:1015F0009A8B898B298130E0322F22274A81242B34
:10160000F701468157814217530709F086C097FFBB
:1016100084C08F709270892B09F0DEC0CF80D12CEE
:10162000DC2CCC248885C82AC114D10409F4D1C08B
:10163000812C912C8D8190E0982F88272E81822BF0
:101640008816990608F46FC0812C912C41E050E077
:10165000BE016D5E7F4FC8010E94C9108B89982F13
:10166000907C09F093C0811186C08B898111EECFE7
:1016700042E050E0BE01615F7F4FC8010E94C91087
:1016800042E050E0BE01635F7F4FC8010E94C91075
:10169000C8010E94E810C8010E94E810C8010E9419
:1016A000E810C8010E94E81042E050E0BE016F5E01
:1016B0007F4FC8010E94C9108F859889811591407C
:1016C00009F069C02D853E85322723273227213036
:1016D000310509F060C089899A898115944009F023
:1016E00075C044E050E0B301C8012C8B3D8B0E94D3
:1016F000C9102C893D896901F1E0AF1AB10829F0C0
:101700002FEFC216D20609F428CFC8010E94791D16
:10171000C60165C08EEF9FEF62C02CEF3FEFEBCFAD
:101720002DEF3FEFE8CF41E050E0BE01635F7F4F18
:10173000C8010E94C9108D85811113C08D8581114A
:10174000F2CFC8010E94E810C8010E94E810C80149
:101750000E94E810C8010E94E810FFEF8F1A9F0A4C
:1017600069CF8D859FEF980F9D87882339F3C80136
:101770000E94E810F6CF8B899FEF980F9B8B8823F0
:1017800009F473CFC8010E94E810F5CFC8010E9488
:10179000E8101B8A6ACF412C512C89899A89982795
:1017A000892798274816590638F4C8010E94E8107E
:1017B0008FEF481A580AF1CFEFEF8E1A9E0A8C1459
:1017C0009D0409F043CF26EF3FEF95CF27EF3FEF82
:1017D00092CF2AEF3FEF8FCF2BEF3FEF8CCF659665
:1017E0000FB6F894DEBF0FBECDBFDF91CF911F9132
:1017F0000F91FF90EF90DF90CF90BF90AF909F90B0
:101800008F907F906F905F904F903F902F900895B2
:101810002F923F924F925F926F927F928F929F9200
:10182000AF92BF92CF92DF92EF92FF920F931F93EE
:10183000CF93DF93CDB7DEB7E3970FB6F894DEBF53
:101840000FBECDBF7C011A012B0139010E94E11AA4
:101850004B015C0187010D5B1F4FC8010E941111F4
:1018600018161906A4F00E94E11ADC01CB018819B0
:101870009909AA09BB09281639064A065B06D8F059
:1018800062E370E080E090E00E94171AE6CF42E247
:1018900050E0BE016F5F7F4FC8010E94C91089816F
:1018A000823011F080E061C1F80184899589833428
:1018B0009105C1F702C08FEF58C16D817E818F8184
:1018C00098850E94F7244B015C01F30160837183CA
:1018D0008283938346E050E0B701685F7F4FCE017B
:1018E0004D960E94AF27892BE9F6F70180819181FF
:1018F000A281B38188169906AA06BB0698F2848154
:101900009581A681B78188159905AA05BB0550F276
:1019100089899A89AB89BC8986879787A08BB18B87
:101920008EECA82EB12CC8010E94E810F1E0AF1A8D
:10193000B108C9F719A6670182E2C80ED11CF701E8
:10194000B696FBA7EAA7C7018A969DA78CA73C97E6
:101950004F0189969FA78EA73897F9ABE8AB17017F
:10196000F6E12F0E311CC5979BAB8AABF801818D38
:10197000928D181619060CF0F7C0C8010E94E810E5
:101980008333910509F4CBC0FCF481309105C9F192
:101990001CF4892B59F3DCC083309105D1F10697F3
:1019A00009F0D6C0C8010E94E8105C0144E050E094
:1019B0006AA97BA9C8010E94C910412C512CBB24E3
:1019C000F4E0AF1AB10840C08A33910509F47BC036
:1019D0003CF48533910569F0C69709F440C0B8C05E
:1019E0008B33910509F485C08F3F910509F4BECF73
:1019F000AFC0C8010E94E810C8010E94E81089A782
:101A0000B5CFC8010E94E81044E050E068A979A968
:101A10003AC0C8010E94E8105C0144E050E0B10106
:101A2000C8010E94C910412C512CBB2494E0A91A72
:101A3000B1084A145B040CF099CFC8010E94E81069
:101A4000EFEF4E1A5E0AF5CF4A145B040CF08ECF0E
:101A5000C8010E94E8108FEF481A580AF5CFC80154
:101A60000E94E810B82EF701828D811110C0838D7D
:101A700081110DC0848D81110AC0858D811107C02F
:101A800044E050E0B401C8010E94C9106FCFEEA538
:101A9000FFA54080518062807380B401CE0183969F
:101AA0000E9475218DA19EA1AFA1B8A584159505B1
:101AB000A605B70529F3BB2009F458CFC8010E9439
:101AC000E810BA94F8CFC8010E94E81044E050E052
:101AD0006AA57BA5C8010E94C910F70166A177A17C
:101AE00080A591A50E94F72466A377A380A791A75C
:101AF0003DCFC8010E94E81044E050E06CA57DA5F0
:101B0000C8010E94C910F70162A573A584A595A517
:101B10000E94F72462A773A784A795A727CFC801BF
:101B20000E94E81044E050E0B601C8010E94C910CC
:101B3000F70162A173A184A195A10E94F72462A379
:101B400073A384A395A366A777A780AB91AB0ECFB1
:101B5000C8010E94E810B82EBB2009F407CFC801C5
:101B60000E94E810BA94F8CF89A5E3960FB6F894CE
:101B7000DEBF0FBECDBFDF91CF911F910F91FF90C0
:101B8000EF90DF90CF90BF90AF909F908F907F901D
:101B90006F905F904F903F902F9008957F928F921B
:101BA0009F92AF92BF92CF92DF92EF92FF920F93EC
:101BB0001F93CF93DF93CDB7DEB7A6970FB6F894F8
:101BC000DEBF0FBECDBF8C01762E942E852E20E277
:101BD000B22ECE0101967C01FC012B2D11922A958B
:101BE000E9F789ED91E09AA389A38FEF8BA38CA3EA
:101BF0008DA38EA3680183E4C80ED11C43E450E09A
:101C0000BE016F5D7F4FC6010E947E1E019609F4E2
:101C1000BFC081E089838A8386E0A82EAB821C82C4
:101C2000F80164817581868197810E94F7246D8314
:101C30007E838F83988789869A8680E890E09C8748
:101C40008B874CE150E0B701C6010E94C10FF7013C
:101C50002B2D11922A95E9F7480188E0880E911CF6
:101C6000F401D70101900D92AA94E1F740E150E010
:101C7000B701C6010E94C10FF7011192BA94E9F7AA
:101C800096E0A92EB12C40E250E0B701C6010E94B7
:101C9000C10FF1E0AF1AB108B1F783E6898392E88A
:101CA0009A8393E59B838C8385E38D8381E08E8388
:101CB0007F829DE3988797E099878A8786E0F40181
:101CC000DE011B9601900D928A95E1F78CE0898BDD
:101CD0008A8B66E573E0CE0143960E94E027F80107
:101CE0004385BE01675E7F4FC8010E945B07F80114
:101CF0004485BE01655E7F4FC8010E945B07F80105
:101D00004585BE01635E7F4FC8010E945B074EE1BF
:101D100050E0B701C6010E94C10FF3E07F121EC060
:101D200082E3898384E08A83F80196859B83978583
:101D30009C8390899D8391899E8396E39F83888766
:101D4000828D8987838D8A87848D8B87858D8C870B
:101D50004CE050E0B701C6010E94C10F87E38983C0
:101D600086E08A8391E09B8393E09C838D838FE060
:101D70008E838AE38F838BE388878FEF898749E09F
:101D800050E0B701C6010E94C10FC6010E94351E76
:101D9000A6960FB6F894DEBF0FBECDBFDF91CF91F0
:101DA0001F910F91FF90EF90DF90CF90BF90AF9079
:101DB0009F908F907F900895CF92DF92EF92FF9245
:101DC0000F931F93CF93DF93EC017A018B016C018A
:101DD000C40ED51ECC15DD05A1F00E94FB0F80EFCF
:101DE0000E9415108D2F0E9415108C2F0E94151027
:101DF0002196F80181918F010E9415100E94F90F20
:101E0000E9CFC701DF91CF911F910F91FF90EF9024
:101E1000DF90CF9008959F92AF92BF92CF92DF92C2
:101E2000EF92FF920F931F93CF93DF93982E8B0126
:101E30005A01690164E270E00E940F1EE82EF12C45
:101E400065E270E0892D0E940F1EFE2CEE24E82A28
:101E5000E701C00FD11F9E013770E92CF12CC7019B
:101E6000880F991FAC0149505C4F7A01FA018081BB
:101E70009181820F931FA9014C0D5D1D4130584087
:101E800090F000E018E0021B130BA801B5010E94BE
:101E9000DC0EA601401B510BB501600F711FF7014D
:101EA0008081918102C0A601B5010E94DC0ECC0D9B
:101EB000DD1D4D2F64E270E0892D0E94051E4C2F20
:101EC00065E270E0892DDF91CF911F910F91FF9016
:101ED000EF90DF90CF90BF90AF909F900C94051E35
:101EE0001F93CF93DF9300D0CDB7DEB7182F6A834F
:101EF00099830E94FB0F80EF0E9415109981892F12
:101F00000E941510812F0E9415106A81862F0E9451
:101F100015100E94F90F81E00F900F90DF91CF9183
:101F20001F9108950895CF93DF931F92CDB7DEB729
:101F30006983DC01ED91FC910280F381E02D41E0A9
:101F400050E0BE016F5F7F4F09950F90DF91CF91F9
:101F500008951F93CF93DF93182F66E270E00E94DD
:101F60000F1EC82FD0E067E270E0812F0E940F1E85
:101F7000DC2FCC279E01282BC901DF91CF911F9127
:101F80000895AF92BF92CF92DF92FF920F931F936B
:101F9000CF93DF938C015B01EA01FC01C688D788EF
:101FA000F08C80E590E00E940B198F2D0E94710942
:101FB0008C179D0720F48F2D0E947109EC019E0162
:101FC000A501B6018F2D0E940B0F0E940A19F8017E
:101FD000868997898C0F9D1F978B868BCE01DF9109
:101FE000CF911F910F91FF90DF90CF90BF90AF9056
:101FF00008952A9A08952A9808951F93CF93DF93FE
:10200000182F60E270E00E940F1EC82FD0E061E23E
:1020100070E0812F0E940F1EDC2FCC279E01282B01
:10202000C901DF91CF911F9108958EBD00000DB4BD
:1020300007FEFDCF8EB508951F93CF93DF9300D099
:10204000CDB7DEB7182F80E590E069837A830E94D0
:102050000B1921E041E050E069817A81812F0E94D3
:1020600009090E940A1981E090E00F900F90DF911A
:10207000CF911F910895CF93DF931F92CDB7DEB715
:10208000FC01218D328D232B49F0BE016F5F7F4F04
:10209000808D0E941C10898190E002C08FEF9FEF1D
:1020A0000F90DF91CF910895FF920F931F93CF93DD
:1020B000DF93F82E80E590E00E940B19C0E0D0E09D
:1020C0008F2D0E94A90F8C01892B21F08F2D0E944A
:1020D000A90FEC01C017D10799F70E940A19CE0188
:1020E000DF91CF911F910F91FF900895AF92BF9212
:1020F000CF92DF92EF92FF921F93CF93DF93182F2F
:102100005B017A0180E590E00E940B19C0E0D0E00D
:10211000812F0E94A90F6C01892B21F0812F0E9431
:10212000A90FEC01CC15DD0599F7209799F463E030
:1021300070E0812F0E940F1E8431F1F08823E1F0BE
:10214000C1E0D0E08C3111F4C0E0D0E0D195C19570
:10215000D10912C0EC16FD060CF4E7011C161D0691
:102160005CF420E0AE01B501812F0E94090960E412
:1021700070E0812F0E94F9080E940A19CE01DF91B8
:10218000CF911F91FF90EF90DF90CF90BF90AF90D5
:102190000895CF93DF93FC01218D328D21153105F8
:1021A00019F48FEF9FEF11C0EC014217530708F0AD
:1021B000A901888D0E9476101816190694F7298DAA
:1021C0003A8D281B390B3A8F298FDF91CF910895D3
:1021D0000F931F93CF93DF931F92CDB7DEB7FC0110
:1021E000218D328D232B61F08C0141E050E0BE0146
:1021F0006F5F7F4F808D0E947610181619061CF0B5
:102200008FEF9FEF08C0F801818D928D0197928F1B
:10221000818F898190E00F90DF91CF911F910F9175
:1022200008950F931F93CF93DF93CDB7DEB7289711
:102230000FB6F894DEBF0FBECDBF8C01F801818DC3
:10224000928D892B49F0D801ED91FC910284F385A0
:10225000E02DC8010995F2CF808D0E945410181608
:1022600019065CF548E050E0BE016F5F7F4FD80172
:1022700058968C910E9476109C0118161906DCF471
:1022800089819A81AB81BC81F801808B918BA28B73
:10229000B38B8D8190E0982F88272E81820F911D1E
:1022A000958B848B2F8130E0322F22278885280F51
:1022B000311D328F218FC90102C080E090E0289645
:1022C0000FB6F894DEBF0FBECDBFDF91CF911F9147
:1022D0000F910895CF93C82F80E590E00E940B19CD
:1022E00060E170E08C2F0E94F9084FEF62E070E02F
:1022F0008C2F0E94051ECF910C940A19FF920F9308
:102300001F93CF93DF9300D0CDB7DEB7F82E8A01AD
:102310002A8369830E946A1180E590E00E940B196C
:102320002A816981462F422B60E070E08F2D0E9448
:10233000051E0115110551F40091070410910804C0
:102340000F5F1F4F1093080400930704412F64E0B0
:1023500070E08F2D0E94051E402F65E070E08F2DEC
:102360000E94051E61E070E08F2D0E94F9080E9416
:102370000A1981E00F900F90DF91CF911F910F917B
:10238000FF900895BF92CF92DF92EF92FF920F934A
:102390001F93CF93DF9300D000D000D0CDB7DEB72E
:1023A000FC01208D243009F053C06A017B018C01AF
:1023B000B12C63E070E08B2D0E940F1E811103C0D1
:1023C000F801B08E06C08831D9F3B394F4E0BF129F
:1023D000F0CFF801808D8430D9F196E0E9E1F1E0A9
:1023E000DE01119601900D929A95E1F7F701938124
:1023F0009F779C8394819D8395819E83B7016E5FB7
:102400007F4F90E0982F882744E050E0845F9B4FF7
:102410000E94DC0EB601F801808D0E946D1EF8014D
:10242000808D90E0982F882746E050E0BE016F5FD6
:102430007F4F8A5F9B4F0E94DC0EF801128E118E37
:1024400020E8A60162E0808D0E947E1181E001C03B
:1024500080E026960FB6F894DEBF0FBECDBFDF91A9
:10246000CF911F910F91FF90EF90DF90CF90BF9091
:1024700008951F93CF93DF931F92CDB7DEB7182F28
:1024800080E590E00E940B1963E070E0812F0E94CC
:102490000F1E89830E940A1989810F90DF91CF91C5
:1024A0001F910895FC01918D228D892F90E0805C11
:1024B0009F4F821B91098F739927089580E090E0C8
:1024C000892B29F00E94941F81110C94000008951B
:1024D000CF93DF93DC01ED91FC9142815381DB01CD
:1024E000C281D38120813181C217D30778F018824D
:1024F00022813381241B350BFC0142815381240F3F
:10250000351F33832283DF91CF9108952C912223AD
:1025100071F39E012F5F3F4F338322832D912883D8
:10252000DFCF0F931F93CF93DF93CDB7DEB76697BF
:102530000FB6F894DEBF0FBECDBF8C01CB011E8A53
:10254000FE0176962AE030E0B9010E94DD2490E396
:10255000980F9293CB010097B9F7BF01C8010E9471
:10256000681266960FB6F894DEBF0FBECDBFDF913E
:10257000CF911F910F9108958F929F92AF92BF922A
:10258000EF92FF920F931F93CF93DF93CDB7DEB7F8
:1025900066970FB6F894DEBF0FBECDBF7C011E8AD2
:1025A0008E010A5E1F4F8AE0882E912CA12CB12C3F
:1025B000CB01BA01A50194010E94D029942F852F47
:1025C000605DF80162938F01A901692F782F411591
:1025D00051056105710561F7BF01C7010E946812CD
:1025E00066960FB6F894DEBF0FBECDBFDF91CF91D8
:1025F0001F910F91FF90EF90BF90AF909F908F90A1
:102600000895CF93DF93DC01ED91FC911197C28186
:10261000D38180819181C817D90760F4CE010196DA
:102620009383828368830280F381E02D108221E00E
:1026300030E002C020E030E012968D919C9113971B
:10264000280F391F13963C932E931297DF91CF9149
:102650000895FF920F931F93CF93DF936115710538
:1026600049F460E772E0DF91CF911F910F91FF90E5
:102670000C9468128B01EC0162E2CE010E940113FE
:10268000F80161918F01662351F0EDE5F3E0F080F0
:10269000FF2099F39181961759F03296F8CF62E2B4
:1026A000CE01DF91CF911F910F91FF900C940113F8
:1026B0006CE5CE010E9401136F2DDFCFCF93DF9326
:1026C000EC01688179818AE090E00E949501009791
:1026D00029F0FC011182108215821482EA81FB81AB
:1026E000309751F0208131812115310511F0F90128
:1026F000F9CF9183808302C09B838A83DF91CF913E
:102700000895FC01848DDF01A80FB11DA35ABF4FAE
:102710002C91848D90E001968F739927848FA689E0
:10272000B7892C93A089B1898C9180648C93938D07
:10273000848D981306C00288F389E02D80818F7DF7
:10274000808308950F931F93CF93DF93EC0128812B
:1027500039813327F901E053FF4F8491F901E454A3
:10276000FF4F0491F901E855FF4F1491112371F0C7
:1027700081110E948219E12FF0E0EE0FFF1FE65752
:10278000FF4FA591B491EC91E02379F48C818111F4
:102790000FC081E08C836D8168276D838A81DF9112
:1027A000CF911F910F910C94AB198C8181111C82D8
:1027B000DF91CF911F910F910895CF93DF93EC019B
:1027C00061E08A810E94DB1960E088810E94DB1948
:1027D00060E08A81DF91CF910C94AB19FC01A0815C
:1027E000B1818C918D3051F024F489508230B8F54C
:1027F00005C0803219F08F3219F0089511962CC05F
:1028000011968C9111978A3219F08F32D1F0089578
:102810001196B183A083A081B181CD0101969183EE
:10282000808311968C9111978823C9F08A3299F789
:1028300012968C9112978F3271F713960DC08A30D1
:1028400071F2A081B181CD010196918380831196AF
:102850008C918111F4CF03C0B183A083C0CF0895C0
:102860000F931F93CF93DF931F92CDB7DEB78C01E9
:1028700069830E94EE13D801ED91FC91119780813C
:102880006981861305C03196ED93FC9381E001C008
:1028900080E00F90DF91CF911F910F9108950F93DA
:1028A0001F93CF93DF938C01EB016BE7CE010E9466
:1028B0000113F8010281138101151105A9F0F80136
:1028C00062817381CE010E9429136AE3CE010E94C6
:1028D0000113BE01C80104960E948114F801008111
:1028E00011810115110541F46DE7CE01DF91CF9102
:1028F0001F910F910C9401136CE2CE010E94011301
:10290000DBCF2F923F924F925F926F927F928F9286
:102910009F92AF92BF92CF92DF92EF92FF920F936E
:102920001F93CF93DF93CDB7DEB766970FB6F894BA
:10293000DEBF0FBECDBFDC01ED91FC913197E830D9
:10294000F10508F004C21B018C01EC5CFF4F0C94F4
:10295000F124FC01C280D380E480F580A7019601B8
:10296000C701B6010E944328882319F067E773E086
:102970007EC020E030E0A901C701B6010E944328D3
:1029800087FF08C06DE2C1010E940113F7FAF094BD
:10299000F7F8F09420E030E0A901C701B6010E94E9
:1029A0004328882309F467C0A7019601C701B6012F
:1029B0000E941325A70196010E94432881115BC044
:1029C0006EE773E054C0FC01028113816BE5C10125
:1029D0000E940113D80112960D911C9113970115B5
:1029E000110559F0B101C80102960E948114F80145
:1029F000008111810115110529F46DE5C1010E94C5
:102A00000113A5C16CE2C1010E940113E8CFDC01F2
:102A100012968D919C9113970E944F1498C1FC01BE
:102A200062817381C1010E94291391C1DC01129658
:102A30006D917C9113971BC06DE2C1010E9401133F
:102A4000F8014281538164817581C1010E94BC12E9
:102A50007EC1FC0182819381A481B581892B8A2B5F
:102A60008B2B19F461E773E002C06CE673E0C101DF
:102A70000E9468126CC120E836E948E15BE4C701B6
:102A8000B6010E94AE2587FD5BC1A12CB12C00E2EE
:102A900010E01A8A198AF501E15BFE4F2489358915
:102AA00046895789C701B6010E94AE2587FD13C02C
:102AB000F501E95CFE4F2489358946895789C701AC
:102AC000B6010E94A9286B017C0189899A89800F2F
:102AD000911F9A8B898B1595079594E0A91AB108D7
:102AE000A8EEAA16AFEFBA06B1F699249A9420E0A0
:102AF00030E0A901C701B6010E94AE251816B4F551
:102B00002CEA35EC47E257E3C701B6010E9443289F
:102B1000181664F19FEF991649F1B92DE4E0BE0251
:102B200050011124F501E15EFE4F20813181428187
:102B30005381C701B6010E94432887FF13C0F501E6
:102B4000E15BFE4F2081318142815381C701B60193
:102B50000E94A9286B017C0189899A89801B910BAD
:102B60009A8B898B159507959A94D4CFC701B60196
:102B70000E947F254B015C012B013C0106E080E4B3
:102B800092E4AFE0B0E08B8B9C8BAD8BBE8B102FB3
:102B90000FEF010F9AE04916510461047104C8F067
:102BA0006B897C898D899E892AE030E040E050E085
:102BB0000E94D0292B8B3C8B4D8B5E8BC301B201C5
:102BC0002AE030E040E050E00E94D02929013A019B
:102BD000DECFC501B4010E9448289B01AC01C701AA
:102BE000B6010E9412256B017C016B897C898D895D
:102BF0009E890E9448289B01AC01C701B6010E9432
:102C0000A9282B013C010E947F256B017C010E94B9
:102C100048289B01AC01C301B2010E9412259B010F
:102C2000AC010E9413250E947F25C60ED71EE81E08
:102C3000F91E8B899C89AD89BE89C816D906EA061A
:102C4000FB06F8F09FEF891A990AA90AB90AA9891F
:102C5000BA89AB2B99F0BAE08B169104A104B104A8
:102C600068F0E989FA893196FA8BE98BC12CD12C6D
:102C70007601812C912C5401839403C0C12CD12C5A
:102C800076012AE0422E512C612C712CC701B6012D
:102C9000A30192010E94D029672B682B692BA1F018
:102CA000012FB501A401C1010E94BC12112359F1E9
:102CB000188A4E01F0E18F0E911C54019AE0492EC2
:102CC000512C612C712C06C0111654F769017A0140
:102CD0001150DCCF015068F0C701B601A301920189
:102CE0000E94D029605DD4016E934D0169017A0183
:102CF000F1CFB501611B71098EE2FB018293BF0127
:102D0000C1010E94681289899A8997FF0BC06BE7FD
:102D100073E0C1010E94681269897A897195619591
:102D200071090AC0A989BA89AB2B89F065E6C1018E
:102D30000E94011369897A89C1010E94911207C01A
:102D400000E210E085E0982E1A8A198AD0CE6696A5
:102D50000FB6F894DEBF0FBECDBFDF91CF911F91AC
:102D60000F91FF90EF90DF90CF90BF90AF909F902A
:102D70008F907F906F905F904F903F902F9008952D
:102D80000F931F93CF93DF938B01FC01C281D381FB
:102D90002097A9F06A817B810115110519F0611551
:102DA000710521F40617170731F409C0C8010E9404
:102DB000D727892B21F00990D881C02DE9CFCE01EA
:102DC000DF91CF911F910F910895EF92FF920F9392
:102DD0001F93CF93DF938C01DC011496CD91DC918E
:102DE0001597EA80FB808E819F81E80EF91EC8014D
:102DF00002960E94EE13D8011296ED91FC91139762
:102E000090819732A9F1923299F180ED890F8A3041
:102E100078F081EA890F8C3158F08FEB890F8A3175
:102E200038F09B3229F083ED890F823008F060C0C2
:102E3000F801228133812F5F3F4F338322832E811C
:102E40003F81A9014F5F5F4F6C817D8164177507DA
:102E500040F06A817B81FB01E20FF31F5F834E83A9
:102E60009083D8011296ED91FC9113979081CDCF6C
:102E70003196D8011396FC93EE931297D8011296CF
:102E8000ED91FC9113972081222391F1AF014F5FC7
:102E90005F4F13965C934E931297291749F12C3587
:102EA000A9F42181A1E6B3E08C91882339F0821343
:102EB00003C011962C9102C01296F6CF2223C1F0C6
:102EC0003296D8011396FC93EE9312974E815F8150
:102ED000BA016F5F7F4FEC81FD81E617F70770F253
:102EE000EA81FB81E40FF51F7F836E832083C6CFC9
:102EF0008E819F819C012F5F3F4F4C815D814217E6
:102F0000530748F04A815B81FA01E80FF91F3F83BC
:102F10002E83108202C0E12CF12CC701DF91CF91EA
:102F20001F910F91FF90EF9008959F92AF92BF92E3
:102F3000CF92DF92EF92FF920F931F93CF93DF9385
:102F400000D000D000D0CDB7DEB7FC019681911142
:102F500012C080910D0481110BC010920A041092CE
:102F6000090410920C0410920B0481E080930D046C
:102F700089E094E057C08F0191509683819191919F
:102F80007F010E94A4016C016BE7C7010E9430140D
:102F90008823F9F26DE7C7010E94301481113DC00A
:102FA00086E0982EC8010E94E5165C01892B89F203
:102FB0006AE3C7010E943014882359F21A821982E9
:102FC000BE016F5F7F4FC8010E94ED1A882309F28E
:102FD000B501C6010E94C016009749F4C6010E94BF
:102FE0005E13009709F4B5CFFC01B382A282FE0103
:102FF0003196DC011496892D01900D928A95E1F7A6
:103000006DE7C7010E943014811107C06CE2C7014F
:103010000E9430148111C6CF9CCFF80186818F5F4A
:103020008683C60126960FB6F894DEBF0FBECDBFCD
:10303000DF91CF911F910F91FF90EF90DF90CF9094
:10304000BF90AF909F900895EF92FF920F931F93C0
:10305000CF93DF936115710511F480E017C07A01F9
:10306000EB018C010E94C016FC01892B41F4C801C0
:103070000E945E13FC01892B81F3D383C28382E01B
:1030800090E095838483F782E68281E0DF91CF919F
:103090001F910F91FF90EF900895CF93DF931F92B0
:1030A000CDB7DEB76983DC01ED91FC910280F3813D
:1030B000E02D41E050E0BE016F5F7F4F09950F901A
:1030C000DF91CF910895DC01ED91FC91068CF78D95
:1030D000E02D099591E089270895862F089581E0D4
:1030E000862708953FB7F8948091190490911A04A7
:1030F000A0911B04B0911C0426B5A89B05C02F3FCE
:1031000019F00196A11DB11D3FBFBA2FA92F982F0D
:103110008827820F911DA11DB11DBC01CD0142E088
:10312000660F771F881F991F4A95D1F70895CF9290
:10313000DF92EF92FF920F931F93CF93DF93CDB760
:10314000DEB7AF970FB6F894DEBF0FBECDBF7C01E0
:103150006A0109ED11E01A8309831C861B8688EE3B
:1031600093E0A0E0B0E08D879E87AF87B88B8DE0BD
:1031700092E09A878987188F0F8B198E1A8E1B8E73
:103180001C8E84E089A31DA30CA31EA21FA218A657
:1031900019A68091250490912604A0912704B0914E
:1031A00028048CA79DA7AEA7BFA78B839C83AD8364
:1031B000BE8318861F82AE014C5D5F4FCE01019623
:1031C0000E948D0981309105B1F4D701ED91FC91F8
:1031D0000684F785E02D1BA70AA78EA19FA1A8A5AD
:1031E000B9A58CA79DA7AEA7BFA7A601BE01665D26
:1031F0007F4FC7010995AF960FB6F894DEBF0FBE9B
:10320000CDBFDF91CF911F910F91FF90EF90DF9095
:10321000CF90089508958CBD9DBD08958F929F9283
:10322000AF92BF92CF92DF92EF92FF920F931F93D4
:10323000CF936C015B017A01FC01C485C43041F479
:1032400081E090E0F6019383828380E090E04EC0BD
:103250008A014130584010F000E018E080E590E02D
:103260000E940B198C2F0E9471094C0163E070E0E1
:103270008C2F0E940F1E873111F08C3121F48016A3
:10328000910660F302C000E010E080E590E00E944B
:103290000B199801A50160E070E08C2F0E940B0FC4
:1032A00060E270E08C2F0E94F90862E070E08C2FE1
:1032B0000E940F1E84FD10C063E070E08C2F0E94FE
:1032C0000F1E811104C08C2F0E946A11B9CF80E5B6
:1032D00090E00E940B19E9CF40E162E070E08C2F92
:1032E0000E94051E012B09F4ABCFC701CF911F919E
:1032F0000F91FF90EF90DF90CF90BF90AF909F9095
:103300008F900895833081F028F4813099F08230D5
:10331000A1F008958730A9F08830B9F08430D1F455
:10332000809180008F7D03C0809180008F77809393
:103330008000089584B58F7702C084B58F7D84BDE9
:1033400008958091B0008F7703C08091B0008F7D89
:103350008093B00008951F93CF93DF93282F30E020
:10336000F901E053FF4F8491F901E454FF4FD491E8
:10337000F901E855FF4FC491CC23C9F0162F8111F4
:103380000E948219EC2FF0E0EE0FFF1FE256FF4F74
:10339000A591B4918FB7F894111105C09C91ED2FB0
:1033A000E095E92302C0EC91ED2BEC938FBFDF9108
:1033B000CF911F910895CF93DF9390E0FC01E454E7
:1033C000FF4F2491FC01E855FF4F8491882361F160
:1033D00090E0880F991FFC01EC56FF4FC591D491E6
:1033E000FC01E256FF4FA591B491611109C09FB74E
:1033F000F8948881209582238883EC912E230BC03A
:10340000623061F49FB7F8943881822F80958323CE
:103410008883EC912E2B2C939FBF06C08FB7F89416
:10342000E8812E2B28838FBFDF91CF9108958F9253
:103430009F92AF92BF92CF92DF92EF92FF926B0179
:103440007C010E9472184B015C01C114D104E1049B
:10345000F104F1F00E947218DC01CB01881999097E
:10346000AA09BB09883E9340A105B10570F321E08C
:10347000C21AD108E108F10888EE880E83E0981E90
:10348000A11CB11CC114D104E104F10419F7DDCF72
:10349000FF90EF90DF90CF90BF90AF909F908F9074
:1034A0000895CF92DF92FF920F931F93CF93DF93F4
:1034B000FC012485243009F077C06A01EB018C01FE
:1034C000F12C8F2D0E943912811103C0F801F4866E
:1034D00007C08B7F8831D1F3F394F4E0FF12F1CF72
:1034E000F8018485843009F45FC020910601309191
:1034F00007012F5F3F4F11F420E030EC30930701BC
:1035000020930601409106015091070120E061E0FF
:103510000E947E11F801F4848A818F3F51F48B81DF
:103520008F3F91F48C818F3F79F48D818F3F61F4CF
:1035300038C0811109C08B81811106C08C81811135
:1035400003C08D81882369F1C114D10451F180E554
:1035500090E00E940B19BE016E5F7F4F8F2D90E0AF
:10356000982F882744E050E0845F9B4F0E94DC0E38
:10357000B6018F2D0E946D1E64E070E08F2D0E94B9
:10358000F908C8010E94BE1E873189F061E070E031
:1035900080E090E00E94171AC8010E94BE1E8111AF
:1035A000F0CF84E0F801848780E090E002C081E001
:1035B00090E0DF91CF911F910F91FF90DF90CF901E
:1035C00008952FB7F89460911504709116048091B6
:1035D0001704909118042FBF08959F92AF92BF9245
:1035E000CF92DF92EF92FF920F931F93CF93DF93CF
:1035F00000D000D000D0CDB7DEB77C016B015C01FC
:1036000082E0A80EB11CC5010E94EE13D7011296EC
:10361000ED91FC91139780818B3521F08B3709F464
:10362000A8C0B2C0F7018681811112C08091C60581
:1036300081110BC01092C3051092C2051092C505EE
:103640001092C40581E08093C60502EC15E07FC0AE
:103650008150868300811181B80184E090E00E944E
:103660009501009739F0FC011183008313821282C7
:103670008C0111C08091C60581110BC01092C30549
:103680001092C2051092C5051092C40581E0809386
:10369000C60502EC15E06BE5C5010E9430148823D5
:1036A00029F26DE5C5010E943014811149C086E000
:1036B000982E1A821982BE016F5F7F4FC7010E9448
:1036C000ED1A882309F4B2CFD8016D917C9188E07E
:1036D00090E00E949501DC01892B39F011961C9233
:1036E0001E9213961C921E921297F801228133812A
:1036F0002115310551F0F90180819181009711F078
:103700009C01F9CFB183A08303C0F801B383A283E6
:10371000109709F48BCFFE0131961296892D0190F6
:103720000D928A95E1F76DE5C5010E943014811173
:1037300007C06CE2C5010E9430148111BACF76CF68
:10374000D70116968C9116978F5F16968C93F80179
:1037500080819181892B11F410E036C086E090E0E1
:10376000D60111969C938E9313961C930E931297E9
:103770002AC0C7010E949517FC0120813181232BAB
:1037800059F327E030E017C011E0873219F0823298
:1037900009F010E0C7010E94E5160097E9F2112335
:1037A00041F022E030E0F60131832083938382836D
:1037B0000BC021E030E0D60111963C932E93139676
:1037C0009C938E93129711E0812F26960FB6F89452
:1037D000DEBF0FBECDBFDF91CF911F910F91FF9044
:1037E000EF90DF90CF90BF90AF909F900895CF93D0
:1037F000DF93BC018BE294E00E94CD20EC016CE4ED
:1038000072E08BE294E00E94CD208C0F9D1FDF912F
:10381000CF910895CF93DF93DC014E5F5F4FFC01A2
:103820009F012A1B3B0B9191992339F0EB01C40FA7
:10383000D51F98834F5F5F4FF3CFCA01821B930B55
:10384000680F791FFB013297308331962083CA01BC
:10385000DF91CF910895CF92DF92EF92FF920F9375
:103860001F93CF93DF9300D000D0CDB7DEB79A017E
:10387000E0E0922F9F77220F232F221F330B3195E9
:103880002115310509F0906801E00E0FA1E0B0E0CC
:10389000AC0FBD1FAE0FB11DFD0190832115310589
:1038A00011F0E02FE6CF10E0DB01A01BB10B149666
:1038B0008C93FE0131966F0180E090E080179107B4
:1038C00064F4F601F1906F019C01201B310B260F6F
:1038D000371FF901F5820196F1CF8091250590916E
:1038E00026054F5F5F4F040F151FFC0120813181BA
:1038F000F90122813381A801BD01F90109957C01FB
:103900000E94E11A6093A9057093AA058093AB0504
:103910009093AC0581E0E016F10609F080E00F908D
:103920000F900F900F90DF91CF911F910F91FF900B
:10393000EF90DF90CF900895809125059091260516
:10394000009759F1DC01ED91FC910688F789E02D93
:103950000995811124C08091C0059091C105892BE2
:10396000E1F48DEF9FEF9093C1058093C0058091A6
:10397000250590912605DC01ED91FC910680F781EB
:10398000E02D09958091250590912605DC01ED91AA
:10399000FC910488F589E02D099580E0089581E087
:1039A0000895FC01818D928D0895FC01848995898B
:1039B000089529ED31E0FC0131832083FB0140892A
:1039C000518962897389FC014283538364837583BF
:1039D0000895DC01ED91FC91048CF58DE02D0994A6
:1039E00080E00895FC019485FB018485981303C051
:1039F00081E0943009F480E0089521E0FC018485A1
:103A0000843009F420E0822F08950895CF92DF9248
:103A1000EF92FF920F931F93CF93DF93CDB7DEB753
:103A2000AF970FB6F894DEBF0FBECDBF7C016A0121
:103A300009ED11E01A8309831C861B8688EE93E04A
:103A4000A0E0B0E08D879E87AF87B88B8DE092E0D5
:103A50009A878987188F0F8B198E1A8E1B8E1C8E52
:103A600084E089A31DA30CA31EA21FA218A619A659
:103A70008091250490912604A0912704B0912804F8
:103A80008CA79DA7AEA7BFA78B839C83AD83BE8366
:103A900018861F82AE014C5D5F4FCE0101960E94D9
:103AA0008D0981309105B1F4D701ED91FC91048825
:103AB000F589E02D1BA70AA78EA19FA1A8A5B9A5EE
:103AC0008CA79DA7AEA7BFA7A601BE01665D7F4FCD
:103AD000C7010995AF960FB6F894DEBF0FBECDBFF4
:103AE000DF91CF911F910F91FF90EF90DF90CF90DA
:103AF0000895CF93DF93EC01888D843061F00E94AC
:103B00006A11E88DF0E0EE0FFF1FEC5FF94F1182B4
:103B1000108284E0888FDF91CF910895EF92FF9219
:103B20001F93CF93DF93FC01208D243011F080E0B0
:103B30001CC07B01EC0110E0812F0E943912811121
:103B400002C0188F05C08831E1F31F5F1430A1F760
:103B5000888D843061F3FD86EC861A8E198E20E004
:103B6000A70162E00E947E1181E0DF91CF911F9159
:103B7000FF90EF9008950F931F93CF93DF931F92C1
:103B8000CDB7DEB78C01DC01ED91FC910084F185AD
:103B9000E02D0995892B51F0BE016F5F7F4FF80131
:103BA00084850E941C10898190E002C08FEF9FEFF6
:103BB0000F90DF91CF911F910F910895FC018485A3
:103BC0000C947610CF93DF931F92CDB7DEB741E010
:103BD00050E0BE016F5F7F4FFC0184850E9476102C
:103BE000181619061CF4898190E002C08FEF9FEF30
:103BF0000F90DF91CF910895FC018485843011F0FE
:103C00000C94541080E090E008959B0190E004969D
:103C1000982F8827642F820F931F0C94700F0F9397
:103C20001F93CF93DF931F92CDB7DEB790E004963A
:103C3000982F88278C01060F171F0E94FB0F8FE01B
:103C40000E941510812F0E941510802F0E941510C0
:103C500080E00E94151089830E94F90F89810F90DE
:103C6000DF91CF911F910F910895CF93FC01C08DEB
:103C700080E590E00E940B1960E270E08C2F0E94BA
:103C8000F90862E070E08C2F0E940F1E84FD19C0BD
:103C900062E070E08C2F0E940F1E83FF0BC048E192
:103CA00062E070E08C2F0E94051E0E940A1980E0DD
:103CB00090E011C00E940A1980E590E00E940B1963
:103CC000E0CF40E162E070E08C2F0E94051E0E9470
:103CD0000A1981E090E0CF910895CF93DF93C82F28
:103CE000D62F472F60E170E00E94051E4D2F61E145
:103CF00070E08C2FDF91CF910C94051EFF920F93F3
:103D00001F93CF93DF93FB01DC0157961C921E9209
:103D100056975896FC908281811109C08381811148
:103D200006C08481811103C085818823F9F0411583
:103D30005105E1F08A01EF0180E590E00E940B1946
:103D4000BE016E5F7F4F2F2D30E0922F882744E019
:103D500050E0845F9B4F0E94DC0EB8018F2D0E94C3
:103D60006D1E0E940A1981E090E002C080E090E0A0
:103D7000DF91CF911F910F91FF900895FC018485F1
:103D8000843011F00C94391280E00895CF93DF93C2
:103D9000FC0124852430D1F0EC010E94BE1E843148
:103DA00081F0882371F0883161F08C3161F4E88111
:103DB000F9810084F185E02DCE01099521E0892B60
:103DC00019F420E001C021E0822F01C080E0DF91E2
:103DD000CF910895CF92DF92EF92FF921F93CF93EE
:103DE000DF93FC0114851430A9F1EC0180E590E02B
:103DF0000E940B1968E070E0812F0E94F9080E9470
:103E00000A190E94E11A6B017C01CE010E94BE1EBC
:103E10008823B1F061E070E080E090E00E94171A22
:103E20000E94E11ADC01CB018C199D09AE09BF0982
:103E3000883E9340A105B10540F38C850E946A112C
:103E4000EC85F0E0EE0FFF1FEC5FF94F118210825E
:103E500084E08C87DF91CF911F91FF90EF90DF90EE
:103E6000CF900895CF92DF92EF92FF920F931F931E
:103E7000CF93DF936C017A018B01C0E0D0E0CE15C7
:103E8000DF0589F0D8016D918D01D601ED91FC918E
:103E90000190F081E02DC6010995892B11F47E0176
:103EA00002C02196ECCFC701DF91CF911F910F91F6
:103EB000FF90EF90DF90CF900895089580E090E01C
:103EC0000895FC01538D448D252F30E0842F90E020
:103ED000821B930B541710F0CF9608950197089505
:103EE000FC01918D828D981761F0828DDF01A80F02
:103EF000B11D5D968C91928D9F5F9F73928F90E024
:103F000008958FEF9FEF0895FC01918D828D981792
:103F100031F0828DE80FF11D858D90E008958FEFCF
:103F20009FEF08950E94AA278BE294E00E9452120C
:103F300021E0892B09F420E0822F0895EF92FF926F
:103F40000F931F93CF93DF93EC0181E0888F9B8DBC
:103F50008C8D981305C0E889F989808185FD24C07E
:103F6000F62E0B8D10E00F5F1F4F0F731127E02E01
:103F70008C8DE8120CC00FB607FCFACFE889F989DE
:103F8000808185FFF5CFCE010E948113F1CF8B8D0B
:103F9000FE01E80FF11DE35AFF4FF0820B8FEA8913
:103FA000FB898081806207C0EE89FF896083E88990
:103FB000F98980818064808381E090E0DF91CF91F6
:103FC0001F910F91FF90EF900895CF93DF93EC0135
:103FD000888D8823C9F0EA89FB89808185FD05C029
:103FE000A889B9898C9186FD0FC00FB607FCF5CF63
:103FF000808185FFF2CFA889B9898C9185FFEDCFAB
:10400000CE010E948113E7CFDF91CF9108951F92D7
:104010000F920FB60F9211242F933F938F939F937C
:10402000AF93BF938091150490911604A09117044B
:10403000B09118043091100623E0230F2D3720F49F
:104040000196A11DB11D05C026E8230F0296A11DF2
:10405000B11D209310068093150490931604A0932D
:104060001704B09318048091190490911A04A09138
:104070001B04B0911C040196A11DB11D809319046D
:1040800090931A04A0931B04B0931C04BF91AF91AA
:104090009F918F913F912F910F900FBE0F901F9086
:1040A0001895CF93DF93DC01ED91FC91EB01A88192
:1040B000B981309711F01097C9F4109759F0EB01BE
:1040C0002C813D81232B31F08C9190E0919581954D
:1040D000910914C0309781F0DC0114968D919C9168
:1040E0001597892B49F0808190E008C0BD01CF0170
:1040F000DF91CF910C94D72780E090E0DF91CF91B2
:104100000895EF92FF920F931F93CF93DF93EC01EB
:10411000198218821B821A821D821C826115710508
:10412000A9F17B01FB0101900020E9F731978F0194
:10413000061B170BB8016F5F7F4F80E090E00E9475
:10414000E026009759F0998388831B830A832C818A
:104150003D81232B81F4FC0110820DC0888199815F
:10416000009711F00E944826198218821D821C8235
:104170001B821A820BC01D830C83B701DF91CF9184
:104180001F910F91FF90EF900C94E027DF91CF915A
:104190001F910F91FF90EF9008956115710579F0CF
:1041A000FB0101900020E9F73197AF01461B570B47
:1041B000DC01ED91FC910280F381E02D099480E017
:1041C00090E008954F925F926F927F92EF92FF92EC
:1041D0000F931F93CF93DF93CDB7DEB7A1970FB6A1
:1041E000F894DEBF0FBECDBF7C01FA01CB0119A24E
:1041F000223008F42AE08E010F5D1F4F422E512C11
:10420000612C712CBF01A30192010E94D029F901F8
:10421000CA01015011096A3014F4605D01C0695C83
:10422000D8016C93232B242B252B61F7B801C701F0
:104230000E94CD20A1960FB6F894DEBF0FBECDBF71
:10424000DF91CF911F910F91FF90EF907F906F9032
:104250005F904F9008958F929F92AF92BF92CF92AE
:10426000DF92EF92FF920F931F93CF93DF937C0126
:10427000EB016C0182E0C80ED11C4701E5E08E0E17
:10428000911C00E010E0F60141916F0150E060E008
:1042900070E02AE0CE010E94E2205C01E881F98111
:1042A0000190F081E02D6EE2CE0109958A0D9B1DF3
:1042B000080F191FC814D90431F7F701458150E0E0
:1042C00060E070E02AE0CE010E94E220800F911FA2
:1042D000DF91CF911F910F91FF90EF90DF90CF90E2
:1042E000BF90AF909F908F90089529ED31E0FC0131
:1042F00031832083FB014081518162817381FC0104
:10430000428353836483758308951F920F920FB67F
:104310000F9211242F933F934F935F936F937F934B
:104320008F939F93AF93BF93EF93FF938BE294E0B0
:104330000E948113FF91EF91BF91AF919F918F9157
:104340007F916F915F914F913F912F910F900FBE91
:104350000F901F9018951F920F920FB60F92112475
:104360002F938F939F93EF93FF93E0913B04F091F2
:104370003C048081E0914104F091420482FD12C02E
:104380009081809144048F5F8F7320914504821740
:1043900051F0E0914404F0E0E55DFB4F958F809390
:1043A000440401C08081FF91EF919F918F912F91E3
:1043B0000F900FBE0F901F9018958091F805909167
:1043C000F9050C944826CF92DF92EF92FF92CF939B
:1043D000DF93EEECF5E0C9EDD1E0D183C08312822A
:1043E000138214821582EDE1F4E0D183C08312823E
:1043F000138214821582E4EDF5E0D183C08312822A
:10440000138214821582EAEDF5E0D183C083128213
:10441000138214821582E0EEF5E0D183C08312820C
:10442000138214821582E6EEF5E0D183C0831282F6
:10443000138214821582E3E2F4E0D183C0831282F6
:10444000138214821582ECEEF5E0D183C0831282D0
:10445000138214821582EBE2F4E01382128288EE5A
:10446000C82E83E0D82EE12CF12CC482D582E682BE
:10447000F7828BE691E09183808385EC90E09587CD
:10448000848784EC90E09787868780EC90E0918B1E
:10449000808B81EC90E0938B828B82EC90E0958B0B
:1044A000848B86EC90E0978B868B118E128E138E08
:1044B000148EEEEFF5E0D183C08312821382148252
:1044C00015826BE673E088EF95E00E948120E2EFB1
:1044D000F5E0D183C0831282138214821582E8E151
:1044E000F5E013821282C482D582E682F7828BE9DC
:1044F00091E09183808384E08487D093B505C09355
:10450000B4051092B6051092B7051092B805109236
:10451000B9058FEF9FEF9093C1058093C005168674
:1045200015861092BF051092BE051092B305109229
:10453000B205E2E1F5E088E090E09383828382E0D7
:1045400090E09183808314821582ECE0F5E089E0AD
:1045500090E09383828383E090E091838083148250
:104560001582E8ECF4E080ED94E0938382838CE3A1
:1045700090E0958384831782168283ED91E0918386
:104580008083DF91CF91FF90EF90DF90CF900895DF
:10459000CF93DF93CDB7DEB7C158D1090FB6F894EA
:1045A000DEBF0FBECDBF789484B5826084BD84B574
:1045B000816084BD85B5826085BD85B5816085BD1E
:1045C00080916E00816080936E00109281008091D6
:1045D000810082608093810080918100816080935E
:1045E0008100809180008160809380008091B10083
:1045F00084608093B1008091B00081608093B000AE
:1046000080917A00846080937A0080917A00826041
:1046100080937A0080917A00816080937A00809103
:104620007A00806880937A001092C1000E94C801CD
:104630002DE330E02C0F3D1F285F3F4FC158DF4F67
:1046400039832883CF57D040AE014F5F5F4F5A0167
:104650000E94E11A00910C0610910D0620910E06A1
:1046600030910F06DC01CB01801B910BA20BB30B29
:10467000883C9105A105B10508F46EC0C158DF4F13
:1046800028813981CF57D04021963FAF2EAF219757
:1046900042E350E023965FAF4EAF239725961FAEBF
:1046A0001EAE259785E392E09EAF8DAFCE01CD96ED
:1046B0000E94A4018C0180911705882319F04DE810
:1046C00052E002C048E952E06AE672E0C8010E9486
:1046D000241880911105882319F04DE852E002C09A
:1046E00048E952E06CED72E0C8010E942418ACE386
:1046F000B0E0AC0FBD1FED96BFAFAEAFED97EF963C
:10470000BFAEAEAEEF971982EBE7F0E0EC0FFD1F06
:10471000E996FFAFEEAFE997EB961FAE1EAEEB97B3
:10472000BE0169587F4FC8010E944F14F5010190E6
:104730000020E9F73197BF016A197B0940E0C50104
:104740000E94DB070E94E11A60930C0670930D062D
:1047500080930E0690930F0682E195E00E94A213CB
:104760008CE095E00E94A2130E949C1C882309F40F
:1047700021C10E94E11A1B012C018091AD0590918D
:10478000AE05A091AF05B091B005A2019101281B23
:10479000390B4A0B5B0BDA01C90189399A43A10530
:1047A000B105A8F48091A9059091AA05A091AB0547
:1047B000B091AC05A2019101281B390B4A0B5B0B90
:1047C000DA01C90189399A43A105B105C8F12091DF
:1047D000B1058091250590912605222371F02CEFDB
:1047E0003FEF3093C1052093C005DC01ED91FC91B2
:1047F0000488F589E02D0995DDC020EC209327057C
:1048000010922805DC01ED91FC910280F381E02DEE
:1048100042E050E067E275E009952092A9053092E8
:10482000AA054092AB055092AC052092AD0530929E
:10483000AE054092AF055092B00581E08093B1057E
:104840008091250590912605DC01ED91FC91008475
:10485000F185E02D0995892B09F4ACC0C5010E94B2
:1048600021083C01892B09F4A5C02092AD053092A6
:10487000AE054092AF055092B00580912705807F2C
:10488000803309F07CC08091B2059091B305892BEB
:1048900009F490C0E980F12CF701E85EFA4F008935
:1048A00010E0102F00278189080F111DF701E75D27
:1048B000FA4F4F01B701665D7A4FA801CF010E9400
:1048C000C527B8016E0D7F1DFB01E85EFA4F118A06
:1048D000209127052670A091B205B091B305223032
:1048E00009F03FC0C288D12CDC2CCC248389C80EAF
:1048F000D11C4BEF5FEF4E195F09401B510B460D6A
:10490000571D645D7A4FC401CF57DF4F2883C158CC
:10491000D040FD01099580E480932705CF57DF4FF4
:104920002881C158D04020932805D0922905C092F3
:104930002A058091250590912605DC01ED91FC91D9
:104940000280F381E02D44E050E067E275E00995D4
:104950002092A9053092AA054092AB055092AC0571
:1049600029C04DEF5FEF4E195F09401B510B460DFB
:10497000571D665D7A4FC401FD0109951BC0803C3F
:10498000A9F480ED809327051092280580912505D4
:1049900090912605DC01ED91FC910280F381E02DE0
:1049A00042E050E067E275E0099504C0803D11F4F3
:1049B0001092B1050E945E124BCE97FB072E16F4A3
:1049C000009407D077FD09D00E94FE2407FC05D093
:1049D0003EF4909581959F4F0895709561957F4F16
:1049E0000895EE0FFF1F0590F491E02D09946927BB
:1049F000962769277827872778270895AA1BBB1B46
:104A000051E107C0AA1FBB1FA617B70710F0A61BCE
:104A1000B70B881F991F5A95A9F780959095BC01EF
:104A2000CD0108955058BB27AA270E942A250C942F
:104A30002D290E941F2938F00E94262920F039F4E0
:104A40009F3F19F426F40C941C290EF4E095E7FB23
:104A50000C941629E92F0E943E2958F3BA176207D1
:104A600073078407950720F079F4A6F50C94602964
:104A70000EF4E0950B2EBA2FA02D0B01B901900179
:104A80000C01CA01A0011124FF27591B99F0593FBD
:104A900050F4503E68F11A16F040A22F232F342F05
:104AA0004427585FF3CF469537952795A795F04053
:104AB0005395C9F77EF41F16BA0B620B730B840B68
:104AC000BAF09150A1F0FF0FBB1F661F771F881F20
:104AD000C2F70EC0BA0F621F731F841F48F4879578
:104AE00077956795B795F7959E3F08F0B0CF93956A
:104AF000880F08F09927EE0F9795879508950E94E3
:104B0000462988F09F5798F0B92F9927B751B0F0F0
:104B1000E1F0660F771F881F991F1AF0BA95C9F741
:104B200014C0B13091F00E946029B1E008950C9456
:104B30006029672F782F8827B85F39F0B93FCCF309
:104B4000869577956795B395D9F73EF490958095BE
:104B5000709561957F4F8F4F9F4F08950E948528D4
:104B600008F48FEF0895CF93DF938230910510F40E
:104B700082E090E0E0911306F091140620E030E02E
:104B8000C0E0D0E0309711F14081518148175907BA
:104B9000C0F04817590761F482819381209719F07A
:104BA0009B838A832BC0909314068093130626C0A0
:104BB0002115310519F04217530718F49A01BE0167
:104BC000DF01EF010280F381E02DDCCF21153105FB
:104BD00009F1281B390B2430310590F412968D9180
:104BE0009C9113976115710521F0FB0193838283DA
:104BF00004C09093140680931306FD01329644C0BE
:104C0000FD01E20FF31F81939193225031092D93FF
:104C10003C933AC02091110630911206232B41F4A7
:104C200020910A0130910B01309312062093110656
:104C300020910801309109012115310541F42DB76A
:104C40003EB740910C0150910D01241B350BE091B2
:104C50001106F0911206E217F307A0F42E1B3F0B8A
:104C60002817390778F0AC014E5F5F4F24173507DE
:104C700048F04E0F5F1F5093120640931106819328
:104C8000919302C0E0E0F0E0CF01DF91CF91089571
:104C90000F931F93CF93DF93009709F48CC0FC010F
:104CA0003297138212820091130610911406011597
:104CB000110581F420813181820F931F209111060B
:104CC000309112062817390779F5F0931206E09310
:104CD000110671C0D80140E050E0AE17BF0750F494
:104CE00012962D913C911397AD012115310509F1D3
:104CF000D901F3CF9D01DA01338322836081718171
:104D0000860F971F8217930769F4EC012881398178
:104D1000260F371F2E5F3F4F318320838A819B816F
:104D200093838283452B29F4F0931406E0931306B2
:104D300042C01396FC93EE931297ED01499159915D
:104D40009E01240F351FE217F30771F480819181D2
:104D5000840F951F029611969C938E938281938166
:104D600013969C938E931297E0E0F0E0D801129690
:104D70008D919C911397009719F0F8018C01F6CF53
:104D80008D919C9198012E5F3F4F820F931F209130
:104D90001106309112062817390769F4309729F463
:104DA000109214061092130602C0138212821093FE
:104DB000120600931106DF91CF911F910F91089574
:104DC000A0E0B0E0E6EEF6E20C949D29EC0100973D
:104DD00021F4CB010E94B325B8C0FC01E60FF71FF8
:104DE0009C0122503109E217F30708F4ACC0D90145
:104DF0000D911C91119706171707B0F0053011059A
:104E000008F49FC0C80104978617970708F499C053
:104E100002501109061B170B019311936D937C939C
:104E2000CF010E9448268DC05B01A01AB10A4C0137
:104E3000800E911EA0911306B091140640E050E040
:104E4000E12CF12C109709F44AC0A815B905D1F549
:104E50006D907C901197630182E0C80ED11CCA143A
:104E6000DB0480F1A3014A195B096A0182E0C80EE4
:104E7000D11C1296BC9012971396AC91B5E0CB164C
:104E8000D10440F0B282A38351834083D9016D9352
:104E90007C930AC00E5F1F4FC301800F911FF90161
:104EA00091838083EB2DFA2FE114F10431F0D701C7
:104EB0001396FC93EE93129744C0F0931406E0937C
:104EC00013063FC08D919C9111974817590708F41C
:104ED000AC017D0112960D90BC91A02DB3CF8091B5
:104EE00011069091120688159905E1F446175707A7
:104EF000C8F48091080190910901009741F48DB7A1
:104F00009EB740910C0150910D01841B950BE81741
:104F1000F907C8F4F0931206E0931106F9017183C2
:104F200060830FC0CB010E94B3257C01009759F02C
:104F3000A801BE010E94BC27CE010E944826C701DD
:104F400004C0CE0102C080E090E0CDB7DEB7EEE055
:104F50000C94B92981E090E0F8940C94012AFB01AB
:104F6000DC0104C08D910190801921F44150504022
:104F7000C8F7881B990B0895FB01DC0102C0019062
:104F80000D9241505040D8F708956817790768F49A
:104F9000FB01DC01E40FF51FA40FB51F02C0029056
:104FA0000E9241505040D8F708950C94BC27FB0155
:104FB000DC018D91019080190110D9F3990B0895AE
:104FC000FB01DC0101900D920020E1F708958F9222
:104FD0009F92AF92BF92CF92DF92EF92FF92CF93C8
:104FE000DF93EC01688179818A819B81611571056C
:104FF0008105910521F464E279ED8BE597E02DE1DF
:1050000033EF41E050E00E94672949015A019B01BA
:10501000AC01A7EAB1E40E9486296B017C01ACEEE9
:10502000B4EFA50194010E949429DC01CB018C0D01
:105030009D1DAE1DBF1DB7FF03C00197A109B0485C
:1050400088839983AA83BB83BC01CD019F77DF91BD
:10505000CF91FF90EF90DF90CF90BF90AF909F9057
:105060008F9008950E94E72708958EE091E00E94B6
:10507000E727089560930E0170930F01809310014C
:105080009093110108950E94852808F481E0089505
:10509000E89409C097FB3EF49095809570956195D2
:1050A0007F4F8F4F9F4F9923A9F0F92F96E9BB2788
:1050B0009395F695879577956795B795F111F8CF04
:1050C000FAF4BB0F11F460FF1BC06F5F7F4F8F4F6F
:1050D0009F4F16C0882311F096E911C0772321F065
:1050E0009EE8872F762F05C0662371F096E8862FFD
:1050F00070E060E02AF09A95660F771F881FDAF754
:10510000880F9695879597F90895990F0008550F80
:10511000AA0BE0E8FEEF16161706E807F907C0F03D
:1051200012161306E407F50798F0621B730B840B45
:10513000950B39F40A2661F0232B242B252B21F41F
:1051400008950A2609F4A140A6958FEF811D811DBF
:1051500008950E94BC280C942D290E941F2938F024
:105160000E94262920F0952311F00C9416290C9406
:105170001C2911240C9461290E943E2970F3959FEB
:10518000C1F3950F50E0551F629FF001729FBB273E
:10519000F00DB11D639FAA27F00DB11DAA1F649FDA
:1051A0006627B00DA11D661F829F2227B00DA11D8D
:1051B000621F739FB00DA11D621F839FA00D611D13
:1051C000221F749F3327A00D611D231F849F600D34
:1051D000211D822F762F6A2F11249F5750409AF05D
:1051E000F1F088234AF0EE0FFF1FBB1F661F771FE9
:1051F000881F91505040A9F79E3F510580F00C94B4
:1052000016290C9461295F3FE4F3983ED4F3869508
:1052100077956795B795F795E7959F5FC1F7FE2B53
:10522000880F911D9695879597F9089597F99F672F
:1052300080E870E060E008959FEF80EC089500241E
:105240000A941616170618060906089500240A94EB
:1052500012161306140605060895092E0394000C71
:1052600011F4882352F0BB0F40F4BF2B11F460FF00
:1052700004C06F5F7F4F8F4F9F4F089557FD905829
:10528000440F551F59F05F3F71F04795880F97FB0A
:10529000991F61F09F3F79F08795089512161306C4
:1052A0001406551FF2CF4695F1DF08C016161706F3
:1052B0001806991FF1CF8695710561050894089528
:1052C000E894BB2766277727CB0197F90895052E29
:1052D00097FB1EF400940E947E2957FD07D00E9480
:1052E000D02907FC03D04EF40C947E2950954095AC
:1052F000309521953F4F4F4F5F4F08959095809582
:10530000709561957F4F8F4F9F4F08950E94F229AE
:10531000A59F900DB49F900DA49F800D911D112409
:105320000895B7FF0C9486290E948629821B930B4F
:1053300008952F923F924F925F926F927F928F9239
:105340009F92AF92BF92CF92DF92EF92FF920F9314
:105350001F93CF93DF93CDB7DEB7CA1BDB0B0FB61E
:10536000F894DEBF0FBECDBF09942A8839884888DB
:105370005F846E847D848C849B84AA84B984C88471
:10538000DF80EE80FD800C811B81AA81B981CE0F68
:10539000D11D0FB6F894DEBF0FBECDBFED0108954D
:1053A000A1E21A2EAA1BBB1BFD010DC0AA1FBB1F29
:1053B000EE1FFF1FA217B307E407F50720F0A21B9B
:1053C000B30BE40BF50B661F771F881F991F1A9408
:1053D00069F760957095809590959B01AC01BD0132
:1053E000CF010895A29FB001B39FC001A39F700D8C
:1053F000811D1124911DB29F700D811D1124911DDD
:10540000089510E0C3E7D0E004C0FE010E94F1243B
:0C5410002196C437D107C9F7F894FFCFEC
:10541C0000010203040600C0000015068000010014
:10542C00000000044D5154540401005E00000000C3
:10543C0000803FCDCCCC3D6F12833A95BFD6337DE7
:10544C001D9026B3CE010CCDCCCC3D0AD7233C17F6
:10545C00B7D13877CC2B329595E6241FB14F0A0083
:10546C000020410000C84200401C4620BCBE4CCA73
:10547C001B0E5AAEC59D74000000009E1F321F61AA
:10548C001FE51F5212701F841F00000000921F3274
:10549C001F5E1F5D1F921F921F921F000000009243
:1054AC001F321F5E1F5D1F000000004D180E195E9D
:1054BC001F051DFC1DE21DBB1D511A9718DE1DEAB0
:1054CC001EC61EFD1C6F186D18F21C631800000020
:1054DC0000921F00000000921F000000009E0000C0
:1054EC000000009E00000000002B21000000009234
:1054FC001F00000000921F921F5E1F921F921F92AE
:10550C001F921F921FF01C921F921F921F921F92AC
:10551C001F921F921F921F921F00000000930FC139
:10552C000F5E1F920FD11CE8103B108E1DC211791B
:10553C001D7E1E061D351E1111C910E91CD91CD566
:10554C001C000000009E004D65737361676520614F
:10555C00727269766564205B005D20000D0A004A5A
:10556C00534F4E3A2070617273654F626A65637473
:10557C002829206661696C6564006C65642D3100B6
:10558C006E756C6C006C65642D3120636F6D6D6194
:10559C006E643A2000436F6D6D616E64204F4E0057
:1055AC00436F6D6D616E64204F464600436F6D6DA9
:1055BC00616E6420756E6B6E6F776E0074657374BC
:1055CC002E6D6F7371756974746F2E6F72670053E3
:1055DC00657474696E672077696C6C206D65737384
:1055EC00616765006F66666C696E65006C65642D3D
:1055FC0032006C65642D330048616C002F75736547
:10560C00723030312F686F6D653030312F726F6FA3
:10561C006D3030312F6C65642F7374617465002F9D
:10562C00757365723030312F686F6D653030312F86
:10563C00726F6F6D3030312F6C65642F636F6D6DD1
:10564C00616E64004E6F7469667920746865206FB2
:10565C006E6C696E650053657475702066696E6951
:10566C0073686564210057495A6E65740022225C88
:10567C005C6208660C6E0A720D74090074727565B2
:10568C000066616C7365004E614E00652D00496EBD
:08569C0066696E697479000073
:00000001FF
